{
    "abi": [
        {
            "type": "constructor",
            "inputs": [],
            "stateMutability": "nonpayable"
        },
        {
            "type": "function",
            "name": "activateBasket",
            "inputs": [
                {
                    "name": "basketId",
                    "type": "uint256",
                    "internalType": "uint256"
                }
            ],
            "outputs": [],
            "stateMutability": "nonpayable"
        },
        {
            "type": "function",
            "name": "admin",
            "inputs": [],
            "outputs": [
                {
                    "name": "",
                    "type": "address",
                    "internalType": "address"
                }
            ],
            "stateMutability": "view"
        },
        {
            "type": "function",
            "name": "basketCounter",
            "inputs": [],
            "outputs": [
                {
                    "name": "",
                    "type": "uint256",
                    "internalType": "uint256"
                }
            ],
            "stateMutability": "view"
        },
        {
            "type": "function",
            "name": "basketLastNAVUpdate",
            "inputs": [
                {
                    "name": "",
                    "type": "uint256",
                    "internalType": "uint256"
                }
            ],
            "outputs": [
                {
                    "name": "",
                    "type": "uint256",
                    "internalType": "uint256"
                }
            ],
            "stateMutability": "view"
        },
        {
            "type": "function",
            "name": "basketLatestNAV",
            "inputs": [
                {
                    "name": "",
                    "type": "uint256",
                    "internalType": "uint256"
                }
            ],
            "outputs": [
                {
                    "name": "",
                    "type": "uint256",
                    "internalType": "uint256"
                }
            ],
            "stateMutability": "view"
        },
        {
            "type": "function",
            "name": "baskets",
            "inputs": [
                {
                    "name": "",
                    "type": "uint256",
                    "internalType": "uint256"
                }
            ],
            "outputs": [
                {
                    "name": "name",
                    "type": "string",
                    "internalType": "string"
                },
                {
                    "name": "theme",
                    "type": "string",
                    "internalType": "string"
                },
                {
                    "name": "basketAddress",
                    "type": "address",
                    "internalType": "address"
                },
                {
                    "name": "bTokenAddress",
                    "type": "address",
                    "internalType": "address"
                },
                {
                    "name": "nftAddress",
                    "type": "address",
                    "internalType": "address"
                },
                {
                    "name": "rebalanceFrequency",
                    "type": "uint256",
                    "internalType": "uint256"
                },
                {
                    "name": "feePercentage",
                    "type": "uint256",
                    "internalType": "uint256"
                },
                {
                    "name": "curator",
                    "type": "address",
                    "internalType": "address"
                },
                {
                    "name": "active",
                    "type": "bool",
                    "internalType": "bool"
                }
            ],
            "stateMutability": "view"
        },
        {
            "type": "function",
            "name": "buyBasket",
            "inputs": [
                {
                    "name": "basketId",
                    "type": "uint256",
                    "internalType": "uint256"
                },
                {
                    "name": "user",
                    "type": "address",
                    "internalType": "address"
                },
                {
                    "name": "stablecoinAmount",
                    "type": "uint256",
                    "internalType": "uint256"
                }
            ],
            "outputs": [
                {
                    "name": "bTokenMinted",
                    "type": "uint256",
                    "internalType": "uint256"
                }
            ],
            "stateMutability": "nonpayable"
        },
        {
            "type": "function",
            "name": "changeAdmin",
            "inputs": [
                {
                    "name": "_newAdmin",
                    "type": "address",
                    "internalType": "address"
                }
            ],
            "outputs": [],
            "stateMutability": "nonpayable"
        },
        {
            "type": "function",
            "name": "createBasket",
            "inputs": [
                {
                    "name": "_name",
                    "type": "string",
                    "internalType": "string"
                },
                {
                    "name": "_theme",
                    "type": "string",
                    "internalType": "string"
                },
                {
                    "name": "_tokens",
                    "type": "address[]",
                    "internalType": "address[]"
                },
                {
                    "name": "_weights",
                    "type": "uint256[]",
                    "internalType": "uint256[]"
                },
                {
                    "name": "_rebalanceFrequency",
                    "type": "uint256",
                    "internalType": "uint256"
                },
                {
                    "name": "_feePercentage",
                    "type": "uint256",
                    "internalType": "uint256"
                },
                {
                    "name": "_basketAddress",
                    "type": "address",
                    "internalType": "address"
                },
                {
                    "name": "_bTokenAddress",
                    "type": "address",
                    "internalType": "address"
                },
                {
                    "name": "_nftAddress",
                    "type": "address",
                    "internalType": "address"
                },
                {
                    "name": "_curator",
                    "type": "address",
                    "internalType": "address"
                }
            ],
            "outputs": [
                {
                    "name": "basketId",
                    "type": "uint256",
                    "internalType": "uint256"
                }
            ],
            "stateMutability": "nonpayable"
        },
        {
            "type": "function",
            "name": "deactivateBasket",
            "inputs": [
                {
                    "name": "basketId",
                    "type": "uint256",
                    "internalType": "uint256"
                }
            ],
            "outputs": [],
            "stateMutability": "nonpayable"
        },
        {
            "type": "function",
            "name": "getBasketConfig",
            "inputs": [
                {
                    "name": "basketId",
                    "type": "uint256",
                    "internalType": "uint256"
                }
            ],
            "outputs": [
                {
                    "name": "",
                    "type": "tuple",
                    "internalType": "struct BasketFactory.BasketConfig",
                    "components": [
                        {
                            "name": "name",
                            "type": "string",
                            "internalType": "string"
                        },
                        {
                            "name": "theme",
                            "type": "string",
                            "internalType": "string"
                        },
                        {
                            "name": "basketAddress",
                            "type": "address",
                            "internalType": "address"
                        },
                        {
                            "name": "bTokenAddress",
                            "type": "address",
                            "internalType": "address"
                        },
                        {
                            "name": "nftAddress",
                            "type": "address",
                            "internalType": "address"
                        },
                        {
                            "name": "underlyingTokens",
                            "type": "address[]",
                            "internalType": "address[]"
                        },
                        {
                            "name": "defaultWeights",
                            "type": "uint256[]",
                            "internalType": "uint256[]"
                        },
                        {
                            "name": "rebalanceFrequency",
                            "type": "uint256",
                            "internalType": "uint256"
                        },
                        {
                            "name": "feePercentage",
                            "type": "uint256",
                            "internalType": "uint256"
                        },
                        {
                            "name": "curator",
                            "type": "address",
                            "internalType": "address"
                        },
                        {
                            "name": "active",
                            "type": "bool",
                            "internalType": "bool"
                        }
                    ]
                }
            ],
            "stateMutability": "view"
        },
        {
            "type": "function",
            "name": "getBasketDefaultWeights",
            "inputs": [
                {
                    "name": "basketId",
                    "type": "uint256",
                    "internalType": "uint256"
                }
            ],
            "outputs": [
                {
                    "name": "",
                    "type": "uint256[]",
                    "internalType": "uint256[]"
                }
            ],
            "stateMutability": "view"
        },
        {
            "type": "function",
            "name": "getBasketIdCounter",
            "inputs": [],
            "outputs": [
                {
                    "name": "",
                    "type": "uint256",
                    "internalType": "uint256"
                }
            ],
            "stateMutability": "view"
        },
        {
            "type": "function",
            "name": "getBasketNAV",
            "inputs": [
                {
                    "name": "basketId",
                    "type": "uint256",
                    "internalType": "uint256"
                }
            ],
            "outputs": [
                {
                    "name": "nav",
                    "type": "uint256",
                    "internalType": "uint256"
                },
                {
                    "name": "lastUpdate",
                    "type": "uint256",
                    "internalType": "uint256"
                }
            ],
            "stateMutability": "view"
        },
        {
            "type": "function",
            "name": "getBasketUnderlyingTokens",
            "inputs": [
                {
                    "name": "basketId",
                    "type": "uint256",
                    "internalType": "uint256"
                }
            ],
            "outputs": [
                {
                    "name": "",
                    "type": "address[]",
                    "internalType": "address[]"
                }
            ],
            "stateMutability": "view"
        },
        {
            "type": "function",
            "name": "getUserBaskets",
            "inputs": [
                {
                    "name": "user",
                    "type": "address",
                    "internalType": "address"
                }
            ],
            "outputs": [
                {
                    "name": "",
                    "type": "uint256[]",
                    "internalType": "uint256[]"
                }
            ],
            "stateMutability": "view"
        },
        {
            "type": "function",
            "name": "isBasketActive",
            "inputs": [
                {
                    "name": "basketId",
                    "type": "uint256",
                    "internalType": "uint256"
                }
            ],
            "outputs": [
                {
                    "name": "",
                    "type": "bool",
                    "internalType": "bool"
                }
            ],
            "stateMutability": "view"
        },
        {
            "type": "function",
            "name": "protocolFeePercentage",
            "inputs": [],
            "outputs": [
                {
                    "name": "",
                    "type": "uint256",
                    "internalType": "uint256"
                }
            ],
            "stateMutability": "view"
        },
        {
            "type": "function",
            "name": "redeemBasket",
            "inputs": [
                {
                    "name": "basketId",
                    "type": "uint256",
                    "internalType": "uint256"
                },
                {
                    "name": "user",
                    "type": "address",
                    "internalType": "address"
                },
                {
                    "name": "bTokenAmount",
                    "type": "uint256",
                    "internalType": "uint256"
                }
            ],
            "outputs": [
                {
                    "name": "stablecoinReturned",
                    "type": "uint256",
                    "internalType": "uint256"
                }
            ],
            "stateMutability": "nonpayable"
        },
        {
            "type": "function",
            "name": "setProtocolFeePercentage",
            "inputs": [
                {
                    "name": "_feePercentage",
                    "type": "uint256",
                    "internalType": "uint256"
                }
            ],
            "outputs": [],
            "stateMutability": "nonpayable"
        },
        {
            "type": "function",
            "name": "updateBasketNAV",
            "inputs": [
                {
                    "name": "basketId",
                    "type": "uint256",
                    "internalType": "uint256"
                },
                {
                    "name": "nav",
                    "type": "uint256",
                    "internalType": "uint256"
                }
            ],
            "outputs": [],
            "stateMutability": "nonpayable"
        },
        {
            "type": "function",
            "name": "userBaskets",
            "inputs": [
                {
                    "name": "",
                    "type": "address",
                    "internalType": "address"
                },
                {
                    "name": "",
                    "type": "uint256",
                    "internalType": "uint256"
                }
            ],
            "outputs": [
                {
                    "name": "",
                    "type": "uint256",
                    "internalType": "uint256"
                }
            ],
            "stateMutability": "view"
        },
        {
            "type": "event",
            "name": "BasketCreated",
            "inputs": [
                {
                    "name": "basketId",
                    "type": "uint256",
                    "indexed": true,
                    "internalType": "uint256"
                },
                {
                    "name": "name",
                    "type": "string",
                    "indexed": false,
                    "internalType": "string"
                },
                {
                    "name": "basketAddress",
                    "type": "address",
                    "indexed": true,
                    "internalType": "address"
                },
                {
                    "name": "bTokenAddress",
                    "type": "address",
                    "indexed": false,
                    "internalType": "address"
                },
                {
                    "name": "nftAddress",
                    "type": "address",
                    "indexed": false,
                    "internalType": "address"
                },
                {
                    "name": "curator",
                    "type": "address",
                    "indexed": false,
                    "internalType": "address"
                },
                {
                    "name": "timestamp",
                    "type": "uint256",
                    "indexed": false,
                    "internalType": "uint256"
                }
            ],
            "anonymous": false
        },
        {
            "type": "event",
            "name": "BasketNAVUpdated",
            "inputs": [
                {
                    "name": "basketId",
                    "type": "uint256",
                    "indexed": true,
                    "internalType": "uint256"
                },
                {
                    "name": "nav",
                    "type": "uint256",
                    "indexed": false,
                    "internalType": "uint256"
                },
                {
                    "name": "timestamp",
                    "type": "uint256",
                    "indexed": false,
                    "internalType": "uint256"
                }
            ],
            "anonymous": false
        },
        {
            "type": "event",
            "name": "BasketPurchased",
            "inputs": [
                {
                    "name": "basketId",
                    "type": "uint256",
                    "indexed": true,
                    "internalType": "uint256"
                },
                {
                    "name": "buyer",
                    "type": "address",
                    "indexed": true,
                    "internalType": "address"
                },
                {
                    "name": "stablecoinAmount",
                    "type": "uint256",
                    "indexed": false,
                    "internalType": "uint256"
                },
                {
                    "name": "bTokenMinted",
                    "type": "uint256",
                    "indexed": false,
                    "internalType": "uint256"
                },
                {
                    "name": "timestamp",
                    "type": "uint256",
                    "indexed": false,
                    "internalType": "uint256"
                }
            ],
            "anonymous": false
        },
        {
            "type": "event",
            "name": "BasketRedeemed",
            "inputs": [
                {
                    "name": "basketId",
                    "type": "uint256",
                    "indexed": true,
                    "internalType": "uint256"
                },
                {
                    "name": "redeemer",
                    "type": "address",
                    "indexed": true,
                    "internalType": "address"
                },
                {
                    "name": "bTokenBurned",
                    "type": "uint256",
                    "indexed": false,
                    "internalType": "uint256"
                },
                {
                    "name": "stablecoinReturned",
                    "type": "uint256",
                    "indexed": false,
                    "internalType": "uint256"
                },
                {
                    "name": "timestamp",
                    "type": "uint256",
                    "indexed": false,
                    "internalType": "uint256"
                }
            ],
            "anonymous": false
        }
    ],
    "bytecode": {
        "object": "0x608060405260196002553480156013575f5ffd5b50335f5f6101000a81548173ffffffffffffffffffffffffffffffffffffffff021916908373ffffffffffffffffffffffffffffffffffffffff160217905550613898806100605f395ff3fe608060405234801561000f575f5ffd5b5060043610610140575f3560e01c8063b518eb75116100b6578063da1795a01161007a578063da1795a0146103c5578063e55316b2146103e3578063ec4dd94714610413578063ee10c33514610443578063f0c68b7214610473578063f851a440146104a357610140565b8063b518eb7514610311578063c63407c014610341578063c938d4e61461035d578063d57319d91461038d578063d8a5e936146103a957610140565b80638f283970116101085780638f283970146101fc578063903746b9146102185780639b01879614610249578063a3b3ab6d14610279578063a60ed374146102a9578063b306a81c146102e157610140565b80632f2db46b146101445780637433b7b514610162578063776fdb9e1461017e57806379f32da1146101ae5780638e50e509146101de575b5f5ffd5b61014c6104c1565b6040516101599190612114565b60405180910390f35b61017c60048036038101906101779190612168565b6104ca565b005b61019860048036038101906101939190612168565b6105ea565b6040516101a59190612114565b60405180910390f35b6101c860048036038101906101c39190612168565b6105ff565b6040516101d591906121ad565b60405180910390f35b6101e6610629565b6040516101f39190612114565b60405180910390f35b61021660048036038101906102119190612220565b61062f565b005b610232600480360381019061022d9190612168565b61076d565b60405161024092919061224b565b60405180910390f35b610263600480360381019061025e9190612168565b61079c565b6040516102709190612329565b60405180910390f35b610293600480360381019061028e9190612168565b610806565b6040516102a091906125ec565b60405180910390f35b6102c360048036038101906102be9190612168565b610bb5565b6040516102d899989796959493929190612663565b60405180910390f35b6102fb60048036038101906102f691906126fc565b610d94565b6040516103089190612114565b60405180910390f35b61032b60048036038101906103269190612168565b610dbf565b6040516103389190612114565b60405180910390f35b61035b60048036038101906103569190612168565b610dd4565b005b610377600480360381019061037291906129ea565b610ef2565b6040516103849190612114565b60405180910390f35b6103a760048036038101906103a29190612b33565b6114f5565b005b6103c360048036038101906103be9190612168565b61164e565b005b6103cd61172b565b6040516103da9190612114565b60405180910390f35b6103fd60048036038101906103f89190612b71565b611731565b60405161040a9190612114565b60405180910390f35b61042d60048036038101906104289190612168565b611a6f565b60405161043a9190612c2d565b60405180910390f35b61045d60048036038101906104589190612220565b611b0e565b60405161046a9190612329565b60405180910390f35b61048d60048036038101906104889190612b71565b611ba1565b60405161049a9190612114565b60405180910390f35b6104ab611f3e565b6040516104b89190612c4d565b60405180910390f35b5f600154905090565b5f5f9054906101000a900473ffffffffffffffffffffffffffffffffffffffff1673ffffffffffffffffffffffffffffffffffffffff163373ffffffffffffffffffffffffffffffffffffffff1614610558576040517f08c379a000000000000000000000000000000000000000000000000000000000815260040161054f90612cb0565b60405180910390fd5b60035f8281526020019081526020015f2060090160149054906101000a900460ff16156105ba576040517f08c379a00000000000000000000000000000000000000000000000000000000081526004016105b190612d18565b60405180910390fd5b600160035f8381526020019081526020015f2060090160146101000a81548160ff02191690831515021790555050565b6005602052805f5260405f205f915090505481565b5f60035f8381526020019081526020015f2060090160149054906101000a900460ff169050919050565b60025481565b5f5f9054906101000a900473ffffffffffffffffffffffffffffffffffffffff1673ffffffffffffffffffffffffffffffffffffffff163373ffffffffffffffffffffffffffffffffffffffff16146106bd576040517f08c379a00000000000000000000000000000000000000000000000000000000081526004016106b490612cb0565b60405180910390fd5b5f73ffffffffffffffffffffffffffffffffffffffff168173ffffffffffffffffffffffffffffffffffffffff160361072b576040517f08c379a000000000000000000000000000000000000000000000000000000000815260040161072290612d80565b60405180910390fd5b805f5f6101000a81548173ffffffffffffffffffffffffffffffffffffffff021916908373ffffffffffffffffffffffffffffffffffffffff16021790555050565b5f5f60045f8481526020019081526020015f2054915060055f8481526020019081526020015f20549050915091565b606060035f8381526020019081526020015f206006018054806020026020016040519081016040528092919081815260200182805480156107fa57602002820191905f5260205f20905b8154815260200190600101908083116107e6575b50505050509050919050565b61080e611f62565b60035f8381526020019081526020015f20604051806101600160405290815f8201805461083a90612dcb565b80601f016020809104026020016040519081016040528092919081815260200182805461086690612dcb565b80156108b15780601f10610888576101008083540402835291602001916108b1565b820191905f5260205f20905b81548152906001019060200180831161089457829003601f168201915b505050505081526020016001820180546108ca90612dcb565b80601f01602080910402602001604051908101604052809291908181526020018280546108f690612dcb565b80156109415780601f1061091857610100808354040283529160200191610941565b820191905f5260205f20905b81548152906001019060200180831161092457829003601f168201915b50505050508152602001600282015f9054906101000a900473ffffffffffffffffffffffffffffffffffffffff1673ffffffffffffffffffffffffffffffffffffffff1673ffffffffffffffffffffffffffffffffffffffff168152602001600382015f9054906101000a900473ffffffffffffffffffffffffffffffffffffffff1673ffffffffffffffffffffffffffffffffffffffff1673ffffffffffffffffffffffffffffffffffffffff168152602001600482015f9054906101000a900473ffffffffffffffffffffffffffffffffffffffff1673ffffffffffffffffffffffffffffffffffffffff1673ffffffffffffffffffffffffffffffffffffffff16815260200160058201805480602002602001604051908101604052809291908181526020018280548015610acb57602002820191905f5260205f20905b815f9054906101000a900473ffffffffffffffffffffffffffffffffffffffff1673ffffffffffffffffffffffffffffffffffffffff1681526020019060010190808311610a82575b5050505050815260200160068201805480602002602001604051908101604052809291908181526020018280548015610b2157602002820191905f5260205f20905b815481526020019060010190808311610b0d575b505050505081526020016007820154815260200160088201548152602001600982015f9054906101000a900473ffffffffffffffffffffffffffffffffffffffff1673ffffffffffffffffffffffffffffffffffffffff1673ffffffffffffffffffffffffffffffffffffffff1681526020016009820160149054906101000a900460ff1615151515815250509050919050565b6003602052805f5260405f205f91509050805f018054610bd490612dcb565b80601f0160208091040260200160405190810160405280929190818152602001828054610c0090612dcb565b8015610c4b5780601f10610c2257610100808354040283529160200191610c4b565b820191905f5260205f20905b815481529060010190602001808311610c2e57829003601f168201915b505050505090806001018054610c6090612dcb565b80601f0160208091040260200160405190810160405280929190818152602001828054610c8c90612dcb565b8015610cd75780601f10610cae57610100808354040283529160200191610cd7565b820191905f5260205f20905b815481529060010190602001808311610cba57829003601f168201915b505050505090806002015f9054906101000a900473ffffffffffffffffffffffffffffffffffffffff1690806003015f9054906101000a900473ffffffffffffffffffffffffffffffffffffffff1690806004015f9054906101000a900473ffffffffffffffffffffffffffffffffffffffff1690806007015490806008015490806009015f9054906101000a900473ffffffffffffffffffffffffffffffffffffffff16908060090160149054906101000a900460ff16905089565b6006602052815f5260405f208181548110610dad575f80fd5b905f5260205f20015f91509150505481565b6004602052805f5260405f205f915090505481565b5f5f9054906101000a900473ffffffffffffffffffffffffffffffffffffffff1673ffffffffffffffffffffffffffffffffffffffff163373ffffffffffffffffffffffffffffffffffffffff1614610e62576040517f08c379a0000000000000000000000000000000000000000000000000000000008152600401610e5990612cb0565b60405180910390fd5b60035f8281526020019081526020015f2060090160149054906101000a900460ff16610ec3576040517f08c379a0000000000000000000000000000000000000000000000000000000008152600401610eba90612e45565b60405180910390fd5b5f60035f8381526020019081526020015f2060090160146101000a81548160ff02191690831515021790555050565b5f5f5f9054906101000a900473ffffffffffffffffffffffffffffffffffffffff1673ffffffffffffffffffffffffffffffffffffffff163373ffffffffffffffffffffffffffffffffffffffff1614610f81576040517f08c379a0000000000000000000000000000000000000000000000000000000008152600401610f7890612cb0565b60405180910390fd5b8751895114610fc5576040517f08c379a0000000000000000000000000000000000000000000000000000000008152600401610fbc90612ead565b60405180910390fd5b5f73ffffffffffffffffffffffffffffffffffffffff168573ffffffffffffffffffffffffffffffffffffffff1603611033576040517f08c379a000000000000000000000000000000000000000000000000000000000815260040161102a90612f15565b60405180910390fd5b5f73ffffffffffffffffffffffffffffffffffffffff168473ffffffffffffffffffffffffffffffffffffffff16036110a1576040517f08c379a000000000000000000000000000000000000000000000000000000000815260040161109890612f7d565b60405180910390fd5b5f73ffffffffffffffffffffffffffffffffffffffff168373ffffffffffffffffffffffffffffffffffffffff160361110f576040517f08c379a000000000000000000000000000000000000000000000000000000000815260040161110690612fe5565b60405180910390fd5b5f73ffffffffffffffffffffffffffffffffffffffff168273ffffffffffffffffffffffffffffffffffffffff160361117d576040517f08c379a00000000000000000000000000000000000000000000000000000000081526004016111749061304d565b60405180910390fd5b5f5f90505f5f90505b89518110156111c4578981815181106111a2576111a161306b565b5b6020026020010151826111b591906130c5565b91508080600101915050611186565b506127108114611209576040517f08c379a000000000000000000000000000000000000000000000000000000000815260040161120090613142565b60405180910390fd5b60015f81548092919061121b90613160565b9190505591506040518061016001604052808d81526020018c81526020018773ffffffffffffffffffffffffffffffffffffffff1681526020018673ffffffffffffffffffffffffffffffffffffffff1681526020018573ffffffffffffffffffffffffffffffffffffffff1681526020018b81526020018a81526020018981526020018881526020018473ffffffffffffffffffffffffffffffffffffffff1681526020016001151581525060035f8481526020019081526020015f205f820151815f0190816112ec9190613347565b5060208201518160010190816113029190613347565b506040820151816002015f6101000a81548173ffffffffffffffffffffffffffffffffffffffff021916908373ffffffffffffffffffffffffffffffffffffffff1602179055506060820151816003015f6101000a81548173ffffffffffffffffffffffffffffffffffffffff021916908373ffffffffffffffffffffffffffffffffffffffff1602179055506080820151816004015f6101000a81548173ffffffffffffffffffffffffffffffffffffffff021916908373ffffffffffffffffffffffffffffffffffffffff16021790555060a08201518160050190805190602001906113f192919061200f565b5060c082015181600601908051906020019061140e929190612096565b5060e082015181600701556101008201518160080155610120820151816009015f6101000a81548173ffffffffffffffffffffffffffffffffffffffff021916908373ffffffffffffffffffffffffffffffffffffffff1602179055506101408201518160090160146101000a81548160ff0219169083151502179055509050508573ffffffffffffffffffffffffffffffffffffffff16827ff3f68de04486221f12e21595de44b8f0d8399e83713561dd7cf420f92305da058e888888426040516114de959493929190613416565b60405180910390a3509a9950505050505050505050565b5f5f9054906101000a900473ffffffffffffffffffffffffffffffffffffffff1673ffffffffffffffffffffffffffffffffffffffff163373ffffffffffffffffffffffffffffffffffffffff1614611583576040517f08c379a000000000000000000000000000000000000000000000000000000000815260040161157a90612cb0565b60405180910390fd5b60035f8381526020019081526020015f2060090160149054906101000a900460ff166115e4576040517f08c379a00000000000000000000000000000000000000000000000000000000081526004016115db906134b8565b60405180910390fd5b8060045f8481526020019081526020015f20819055504260055f8481526020019081526020015f2081905550817fc6740ee5b13a92eca037d0c121ab20c6ca0a9ddc206622e374f0f5ede29635c7824260405161164292919061224b565b60405180910390a25050565b5f5f9054906101000a900473ffffffffffffffffffffffffffffffffffffffff1673ffffffffffffffffffffffffffffffffffffffff163373ffffffffffffffffffffffffffffffffffffffff16146116dc576040517f08c379a00000000000000000000000000000000000000000000000000000000081526004016116d390612cb0565b60405180910390fd5b6103e8811115611721576040517f08c379a000000000000000000000000000000000000000000000000000000000815260040161171890613520565b60405180910390fd5b8060028190555050565b60015481565b5f8360035f8281526020019081526020015f2060090160149054906101000a900460ff16611794576040517f08c379a000000000000000000000000000000000000000000000000000000000815260040161178b906134b8565b60405180910390fd5b5f5f9054906101000a900473ffffffffffffffffffffffffffffffffffffffff1673ffffffffffffffffffffffffffffffffffffffff163373ffffffffffffffffffffffffffffffffffffffff1614611822576040517f08c379a000000000000000000000000000000000000000000000000000000000815260040161181990612cb0565b60405180910390fd5b5f60035f8781526020019081526020015f2090505f8411611878576040517f08c379a000000000000000000000000000000000000000000000000000000000815260040161186f90613588565b60405180910390fd5b806003015f9054906101000a900473ffffffffffffffffffffffffffffffffffffffff1673ffffffffffffffffffffffffffffffffffffffff166323b872dd8630876040518463ffffffff1660e01b81526004016118d8939291906135a6565b6020604051808303815f875af11580156118f4573d5f5f3e3d5ffd5b505050506040513d601f19601f820116820180604052508101906119189190613605565b611957576040517f08c379a000000000000000000000000000000000000000000000000000000000815260040161194e9061367a565b60405180910390fd5b5f61271082600801548661196b9190613698565b6119759190613706565b905080856119839190613736565b9350816002015f9054906101000a900473ffffffffffffffffffffffffffffffffffffffff1673ffffffffffffffffffffffffffffffffffffffff1663feca43d38787876040518463ffffffff1660e01b81526004016119e593929190613769565b5f604051808303815f87803b1580156119fc575f5ffd5b505af1158015611a0e573d5f5f3e3d5ffd5b505050508573ffffffffffffffffffffffffffffffffffffffff16877f126ec3170e172e8c64aa38fc3035047e185c34af0ed0d4d865cea65cec14b344878742604051611a5d9392919061379e565b60405180910390a35050509392505050565b606060035f8381526020019081526020015f20600501805480602002602001604051908101604052809291908181526020018280548015611b0257602002820191905f5260205f20905b815f9054906101000a900473ffffffffffffffffffffffffffffffffffffffff1673ffffffffffffffffffffffffffffffffffffffff1681526020019060010190808311611ab9575b50505050509050919050565b606060065f8373ffffffffffffffffffffffffffffffffffffffff1673ffffffffffffffffffffffffffffffffffffffff1681526020019081526020015f20805480602002602001604051908101604052809291908181526020018280548015611b9557602002820191905f5260205f20905b815481526020019060010190808311611b81575b50505050509050919050565b5f8360035f8281526020019081526020015f2060090160149054906101000a900460ff16611c04576040517f08c379a0000000000000000000000000000000000000000000000000000000008152600401611bfb906134b8565b60405180910390fd5b5f5f9054906101000a900473ffffffffffffffffffffffffffffffffffffffff1673ffffffffffffffffffffffffffffffffffffffff163373ffffffffffffffffffffffffffffffffffffffff1614611c92576040517f08c379a0000000000000000000000000000000000000000000000000000000008152600401611c8990612cb0565b60405180910390fd5b5f60035f8781526020019081526020015f2090505f8411611ce8576040517f08c379a0000000000000000000000000000000000000000000000000000000008152600401611cdf90613588565b60405180910390fd5b5f612710826008015486611cfc9190613698565b611d069190613706565b90508085611d149190613736565b9350816003015f9054906101000a900473ffffffffffffffffffffffffffffffffffffffff1673ffffffffffffffffffffffffffffffffffffffff1663a9059cbb87866040518363ffffffff1660e01b8152600401611d749291906137d3565b6020604051808303815f875af1158015611d90573d5f5f3e3d5ffd5b505050506040513d601f19601f82011682018060405250810190611db49190613605565b611df3576040517f08c379a0000000000000000000000000000000000000000000000000000000008152600401611dea90613844565b60405180910390fd5b816002015f9054906101000a900473ffffffffffffffffffffffffffffffffffffffff1673ffffffffffffffffffffffffffffffffffffffff1663c68ba54c8787876040518463ffffffff1660e01b8152600401611e5393929190613769565b5f604051808303815f87803b158015611e6a575f5ffd5b505af1158015611e7c573d5f5f3e3d5ffd5b5050505060065f8773ffffffffffffffffffffffffffffffffffffffff1673ffffffffffffffffffffffffffffffffffffffff1681526020019081526020015f2087908060018154018082558091505060019003905f5260205f20015f90919091909150558573ffffffffffffffffffffffffffffffffffffffff16877f7bed50d4d3971f2b4bd00301adcbb640eb127edc583fece9afccad9cb81e79cf878742604051611f2c9392919061379e565b60405180910390a35050509392505050565b5f5f9054906101000a900473ffffffffffffffffffffffffffffffffffffffff1681565b60405180610160016040528060608152602001606081526020015f73ffffffffffffffffffffffffffffffffffffffff1681526020015f73ffffffffffffffffffffffffffffffffffffffff1681526020015f73ffffffffffffffffffffffffffffffffffffffff16815260200160608152602001606081526020015f81526020015f81526020015f73ffffffffffffffffffffffffffffffffffffffff1681526020015f151581525090565b828054828255905f5260205f20908101928215612085579160200282015b82811115612084578251825f6101000a81548173ffffffffffffffffffffffffffffffffffffffff021916908373ffffffffffffffffffffffffffffffffffffffff1602179055509160200191906001019061202d565b5b50905061209291906120e1565b5090565b828054828255905f5260205f209081019282156120d0579160200282015b828111156120cf5782518255916020019190600101906120b4565b5b5090506120dd91906120e1565b5090565b5b808211156120f8575f815f9055506001016120e2565b5090565b5f819050919050565b61210e816120fc565b82525050565b5f6020820190506121275f830184612105565b92915050565b5f604051905090565b5f5ffd5b5f5ffd5b612147816120fc565b8114612151575f5ffd5b50565b5f813590506121628161213e565b92915050565b5f6020828403121561217d5761217c612136565b5b5f61218a84828501612154565b91505092915050565b5f8115159050919050565b6121a781612193565b82525050565b5f6020820190506121c05f83018461219e565b92915050565b5f73ffffffffffffffffffffffffffffffffffffffff82169050919050565b5f6121ef826121c6565b9050919050565b6121ff816121e5565b8114612209575f5ffd5b50565b5f8135905061221a816121f6565b92915050565b5f6020828403121561223557612234612136565b5b5f6122428482850161220c565b91505092915050565b5f60408201905061225e5f830185612105565b61226b6020830184612105565b9392505050565b5f81519050919050565b5f82825260208201905092915050565b5f819050602082019050919050565b6122a4816120fc565b82525050565b5f6122b5838361229b565b60208301905092915050565b5f602082019050919050565b5f6122d782612272565b6122e1818561227c565b93506122ec8361228c565b805f5b8381101561231c57815161230388826122aa565b975061230e836122c1565b9250506001810190506122ef565b5085935050505092915050565b5f6020820190508181035f83015261234181846122cd565b905092915050565b5f81519050919050565b5f82825260208201905092915050565b8281835e5f83830152505050565b5f601f19601f8301169050919050565b5f61238b82612349565b6123958185612353565b93506123a5818560208601612363565b6123ae81612371565b840191505092915050565b6123c2816121e5565b82525050565b5f81519050919050565b5f82825260208201905092915050565b5f819050602082019050919050565b5f6123fc83836123b9565b60208301905092915050565b5f602082019050919050565b5f61241e826123c8565b61242881856123d2565b9350612433836123e2565b805f5b8381101561246357815161244a88826123f1565b975061245583612408565b925050600181019050612436565b5085935050505092915050565b5f82825260208201905092915050565b5f61248a82612272565b6124948185612470565b935061249f8361228c565b805f5b838110156124cf5781516124b688826122aa565b97506124c1836122c1565b9250506001810190506124a2565b5085935050505092915050565b6124e581612193565b82525050565b5f61016083015f8301518482035f8601526125068282612381565b915050602083015184820360208601526125208282612381565b915050604083015161253560408601826123b9565b50606083015161254860608601826123b9565b50608083015161255b60808601826123b9565b5060a083015184820360a08601526125738282612414565b91505060c083015184820360c086015261258d8282612480565b91505060e08301516125a260e086018261229b565b506101008301516125b761010086018261229b565b506101208301516125cc6101208601826123b9565b506101408301516125e16101408601826124dc565b508091505092915050565b5f6020820190508181035f83015261260481846124eb565b905092915050565b5f82825260208201905092915050565b5f61262682612349565b612630818561260c565b9350612640818560208601612363565b61264981612371565b840191505092915050565b61265d816121e5565b82525050565b5f610120820190508181035f83015261267c818c61261c565b90508181036020830152612690818b61261c565b905061269f604083018a612654565b6126ac6060830189612654565b6126b96080830188612654565b6126c660a0830187612105565b6126d360c0830186612105565b6126e060e0830185612654565b6126ee61010083018461219e565b9a9950505050505050505050565b5f5f6040838503121561271257612711612136565b5b5f61271f8582860161220c565b925050602061273085828601612154565b9150509250929050565b5f5ffd5b5f5ffd5b7f4e487b71000000000000000000000000000000000000000000000000000000005f52604160045260245ffd5b61277882612371565b810181811067ffffffffffffffff8211171561279757612796612742565b5b80604052505050565b5f6127a961212d565b90506127b5828261276f565b919050565b5f67ffffffffffffffff8211156127d4576127d3612742565b5b6127dd82612371565b9050602081019050919050565b828183375f83830152505050565b5f61280a612805846127ba565b6127a0565b9050828152602081018484840111156128265761282561273e565b5b6128318482856127ea565b509392505050565b5f82601f83011261284d5761284c61273a565b5b813561285d8482602086016127f8565b91505092915050565b5f67ffffffffffffffff8211156128805761287f612742565b5b602082029050602081019050919050565b5f5ffd5b5f6128a76128a284612866565b6127a0565b905080838252602082019050602084028301858111156128ca576128c9612891565b5b835b818110156128f357806128df888261220c565b8452602084019350506020810190506128cc565b5050509392505050565b5f82601f8301126129115761291061273a565b5b8135612921848260208601612895565b91505092915050565b5f67ffffffffffffffff82111561294457612943612742565b5b602082029050602081019050919050565b5f6129676129628461292a565b6127a0565b9050808382526020820190506020840283018581111561298a57612989612891565b5b835b818110156129b3578061299f8882612154565b84526020840193505060208101905061298c565b5050509392505050565b5f82601f8301126129d1576129d061273a565b5b81356129e1848260208601612955565b91505092915050565b5f5f5f5f5f5f5f5f5f5f6101408b8d031215612a0957612a08612136565b5b5f8b013567ffffffffffffffff811115612a2657612a2561213a565b5b612a328d828e01612839565b9a505060208b013567ffffffffffffffff811115612a5357612a5261213a565b5b612a5f8d828e01612839565b99505060408b013567ffffffffffffffff811115612a8057612a7f61213a565b5b612a8c8d828e016128fd565b98505060608b013567ffffffffffffffff811115612aad57612aac61213a565b5b612ab98d828e016129bd565b9750506080612aca8d828e01612154565b96505060a0612adb8d828e01612154565b95505060c0612aec8d828e0161220c565b94505060e0612afd8d828e0161220c565b935050610100612b0f8d828e0161220c565b925050610120612b218d828e0161220c565b9150509295989b9194979a5092959850565b5f5f60408385031215612b4957612b48612136565b5b5f612b5685828601612154565b9250506020612b6785828601612154565b9150509250929050565b5f5f5f60608486031215612b8857612b87612136565b5b5f612b9586828701612154565b9350506020612ba68682870161220c565b9250506040612bb786828701612154565b9150509250925092565b5f82825260208201905092915050565b5f612bdb826123c8565b612be58185612bc1565b9350612bf0836123e2565b805f5b83811015612c20578151612c0788826123f1565b9750612c1283612408565b925050600181019050612bf3565b5085935050505092915050565b5f6020820190508181035f830152612c458184612bd1565b905092915050565b5f602082019050612c605f830184612654565b92915050565b7f4f6e6c792061646d696e000000000000000000000000000000000000000000005f82015250565b5f612c9a600a8361260c565b9150612ca582612c66565b602082019050919050565b5f6020820190508181035f830152612cc781612c8e565b9050919050565b7f416c7265616479206163746976650000000000000000000000000000000000005f82015250565b5f612d02600e8361260c565b9150612d0d82612cce565b602082019050919050565b5f6020820190508181035f830152612d2f81612cf6565b9050919050565b7f496e76616c6964206164647265737300000000000000000000000000000000005f82015250565b5f612d6a600f8361260c565b9150612d7582612d36565b602082019050919050565b5f6020820190508181035f830152612d9781612d5e565b9050919050565b7f4e487b71000000000000000000000000000000000000000000000000000000005f52602260045260245ffd5b5f6002820490506001821680612de257607f821691505b602082108103612df557612df4612d9e565b5b50919050565b7f416c726561647920696e616374697665000000000000000000000000000000005f82015250565b5f612e2f60108361260c565b9150612e3a82612dfb565b602082019050919050565b5f6020820190508181035f830152612e5c81612e23565b9050919050565b7f546f6b656e732f77656967687473206d69736d617463680000000000000000005f82015250565b5f612e9760178361260c565b9150612ea282612e63565b602082019050919050565b5f6020820190508181035f830152612ec481612e8b565b9050919050565b7f496e76616c6964206261736b65742061646472657373000000000000000000005f82015250565b5f612eff60168361260c565b9150612f0a82612ecb565b602082019050919050565b5f6020820190508181035f830152612f2c81612ef3565b9050919050565b7f496e76616c69642062546f6b656e2061646472657373000000000000000000005f82015250565b5f612f6760168361260c565b9150612f7282612f33565b602082019050919050565b5f6020820190508181035f830152612f9481612f5b565b9050919050565b7f496e76616c6964204e46542061646472657373000000000000000000000000005f82015250565b5f612fcf60138361260c565b9150612fda82612f9b565b602082019050919050565b5f6020820190508181035f830152612ffc81612fc3565b9050919050565b7f496e76616c69642063757261746f7200000000000000000000000000000000005f82015250565b5f613037600f8361260c565b915061304282613003565b602082019050919050565b5f6020820190508181035f8301526130648161302b565b9050919050565b7f4e487b71000000000000000000000000000000000000000000000000000000005f52603260045260245ffd5b7f4e487b71000000000000000000000000000000000000000000000000000000005f52601160045260245ffd5b5f6130cf826120fc565b91506130da836120fc565b92508282019050808211156130f2576130f1613098565b5b92915050565b7f57656967687473206d7573742073756d20746f203130303030000000000000005f82015250565b5f61312c60198361260c565b9150613137826130f8565b602082019050919050565b5f6020820190508181035f83015261315981613120565b9050919050565b5f61316a826120fc565b91507fffffffffffffffffffffffffffffffffffffffffffffffffffffffffffffffff820361319c5761319b613098565b5b600182019050919050565b5f819050815f5260205f209050919050565b5f6020601f8301049050919050565b5f82821b905092915050565b5f600883026132037fffffffffffffffffffffffffffffffffffffffffffffffffffffffffffffffff826131c8565b61320d86836131c8565b95508019841693508086168417925050509392505050565b5f819050919050565b5f61324861324361323e846120fc565b613225565b6120fc565b9050919050565b5f819050919050565b6132618361322e565b61327561326d8261324f565b8484546131d4565b825550505050565b5f5f905090565b61328c61327d565b613297818484613258565b505050565b5b818110156132ba576132af5f82613284565b60018101905061329d565b5050565b601f8211156132ff576132d0816131a7565b6132d9846131b9565b810160208510156132e8578190505b6132fc6132f4856131b9565b83018261329c565b50505b505050565b5f82821c905092915050565b5f61331f5f1984600802613304565b1980831691505092915050565b5f6133378383613310565b9150826002028217905092915050565b61335082612349565b67ffffffffffffffff81111561336957613368612742565b5b6133738254612dcb565b61337e8282856132be565b5f60209050601f8311600181146133af575f841561339d578287015190505b6133a7858261332c565b86555061340e565b601f1984166133bd866131a7565b5f5b828110156133e4578489015182556001820191506020850194506020810190506133bf565b8683101561340157848901516133fd601f891682613310565b8355505b6001600288020188555050505b505050505050565b5f60a0820190508181035f83015261342e818861261c565b905061343d6020830187612654565b61344a6040830186612654565b6134576060830185612654565b6134646080830184612105565b9695505050505050565b7f4261736b6574206e6f74206163746976650000000000000000000000000000005f82015250565b5f6134a260118361260c565b91506134ad8261346e565b602082019050919050565b5f6020820190508181035f8301526134cf81613496565b9050919050565b7f46656520746f6f206869676800000000000000000000000000000000000000005f82015250565b5f61350a600c8361260c565b9150613515826134d6565b602082019050919050565b5f6020820190508181035f830152613537816134fe565b9050919050565b7f416d6f756e74206d757374206265203e203000000000000000000000000000005f82015250565b5f61357260128361260c565b915061357d8261353e565b602082019050919050565b5f6020820190508181035f83015261359f81613566565b9050919050565b5f6060820190506135b95f830186612654565b6135c66020830185612654565b6135d36040830184612105565b949350505050565b6135e481612193565b81146135ee575f5ffd5b50565b5f815190506135ff816135db565b92915050565b5f6020828403121561361a57613619612136565b5b5f613627848285016135f1565b91505092915050565b7f62546f6b656e207472616e736665722066726f6d2075736572206661696c65645f82015250565b5f61366460208361260c565b915061366f82613630565b602082019050919050565b5f6020820190508181035f83015261369181613658565b9050919050565b5f6136a2826120fc565b91506136ad836120fc565b92508282026136bb816120fc565b915082820484148315176136d2576136d1613098565b5b5092915050565b7f4e487b71000000000000000000000000000000000000000000000000000000005f52601260045260245ffd5b5f613710826120fc565b915061371b836120fc565b92508261372b5761372a6136d9565b5b828204905092915050565b5f613740826120fc565b915061374b836120fc565b925082820390508181111561376357613762613098565b5b92915050565b5f60608201905061377c5f830186612654565b6137896020830185612105565b6137966040830184612105565b949350505050565b5f6060820190506137b15f830186612105565b6137be6020830185612105565b6137cb6040830184612105565b949350505050565b5f6040820190506137e65f830185612654565b6137f36020830184612105565b9392505050565b7f62546f6b656e207472616e73666572206661696c6564000000000000000000005f82015250565b5f61382e60168361260c565b9150613839826137fa565b602082019050919050565b5f6020820190508181035f83015261385b81613822565b905091905056fea2646970667358221220bee7c141f593155ec996be6d8ca36e8c895dcea0e9dfcc92c97a2989cd31053964736f6c634300081c0033",
        "linkReferences": {}
    },
    "methodIdentifiers": {
        "activateBasket(uint256)": "7433b7b5",
        "admin()": "f851a440",
        "basketCounter()": "da1795a0",
        "basketLastNAVUpdate(uint256)": "776fdb9e",
        "basketLatestNAV(uint256)": "b518eb75",
        "baskets(uint256)": "a60ed374",
        "buyBasket(uint256,address,uint256)": "f0c68b72",
        "changeAdmin(address)": "8f283970",
        "createBasket(string,string,address[],uint256[],uint256,uint256,address,address,address,address)": "c938d4e6",
        "deactivateBasket(uint256)": "c63407c0",
        "getBasketConfig(uint256)": "a3b3ab6d",
        "getBasketDefaultWeights(uint256)": "9b018796",
        "getBasketIdCounter()": "2f2db46b",
        "getBasketNAV(uint256)": "903746b9",
        "getBasketUnderlyingTokens(uint256)": "ec4dd947",
        "getUserBaskets(address)": "ee10c335",
        "isBasketActive(uint256)": "79f32da1",
        "protocolFeePercentage()": "8e50e509",
        "redeemBasket(uint256,address,uint256)": "e55316b2",
        "setProtocolFeePercentage(uint256)": "d8a5e936",
        "updateBasketNAV(uint256,uint256)": "d57319d9",
        "userBaskets(address,uint256)": "b306a81c"
    },
    "id": 1
}