{
    "abi": [
        {
            "type": "constructor",
            "inputs": [
                {
                    "name": "_factory",
                    "type": "address",
                    "internalType": "address"
                },
                {
                    "name": "_curator",
                    "type": "address",
                    "internalType": "address"
                },
                {
                    "name": "_name",
                    "type": "string",
                    "internalType": "string"
                },
                {
                    "name": "_theme",
                    "type": "string",
                    "internalType": "string"
                },
                {
                    "name": "_bToken",
                    "type": "address",
                    "internalType": "address"
                },
                {
                    "name": "_nft",
                    "type": "address",
                    "internalType": "address"
                },
                {
                    "name": "_tokens",
                    "type": "address[]",
                    "internalType": "address[]"
                },
                {
                    "name": "_weights",
                    "type": "uint256[]",
                    "internalType": "uint256[]"
                },
                {
                    "name": "_rebalanceFrequency",
                    "type": "uint256",
                    "internalType": "uint256"
                },
                {
                    "name": "_feePercentage",
                    "type": "uint256",
                    "internalType": "uint256"
                }
            ],
            "stateMutability": "nonpayable"
        },
        {
            "type": "function",
            "name": "bTokenAddress",
            "inputs": [],
            "outputs": [
                {
                    "name": "",
                    "type": "address",
                    "internalType": "address"
                }
            ],
            "stateMutability": "view"
        },
        {
            "type": "function",
            "name": "basketName",
            "inputs": [],
            "outputs": [
                {
                    "name": "",
                    "type": "string",
                    "internalType": "string"
                }
            ],
            "stateMutability": "view"
        },
        {
            "type": "function",
            "name": "basketTheme",
            "inputs": [],
            "outputs": [
                {
                    "name": "",
                    "type": "string",
                    "internalType": "string"
                }
            ],
            "stateMutability": "view"
        },
        {
            "type": "function",
            "name": "curator",
            "inputs": [],
            "outputs": [
                {
                    "name": "",
                    "type": "address",
                    "internalType": "address"
                }
            ],
            "stateMutability": "view"
        },
        {
            "type": "function",
            "name": "defaultWeights",
            "inputs": [
                {
                    "name": "",
                    "type": "uint256",
                    "internalType": "uint256"
                }
            ],
            "outputs": [
                {
                    "name": "",
                    "type": "uint256",
                    "internalType": "uint256"
                }
            ],
            "stateMutability": "view"
        },
        {
            "type": "function",
            "name": "factory",
            "inputs": [],
            "outputs": [
                {
                    "name": "",
                    "type": "address",
                    "internalType": "address"
                }
            ],
            "stateMutability": "view"
        },
        {
            "type": "function",
            "name": "getDefaultWeights",
            "inputs": [],
            "outputs": [
                {
                    "name": "",
                    "type": "uint256[]",
                    "internalType": "uint256[]"
                }
            ],
            "stateMutability": "view"
        },
        {
            "type": "function",
            "name": "getTokenCount",
            "inputs": [],
            "outputs": [
                {
                    "name": "",
                    "type": "uint256",
                    "internalType": "uint256"
                }
            ],
            "stateMutability": "view"
        },
        {
            "type": "function",
            "name": "getTotalValueLocked",
            "inputs": [],
            "outputs": [
                {
                    "name": "",
                    "type": "uint256",
                    "internalType": "uint256"
                }
            ],
            "stateMutability": "view"
        },
        {
            "type": "function",
            "name": "getUnderlyingTokens",
            "inputs": [],
            "outputs": [
                {
                    "name": "",
                    "type": "address[]",
                    "internalType": "address[]"
                }
            ],
            "stateMutability": "view"
        },
        {
            "type": "function",
            "name": "getUserBTokenBalance",
            "inputs": [
                {
                    "name": "user",
                    "type": "address",
                    "internalType": "address"
                }
            ],
            "outputs": [
                {
                    "name": "",
                    "type": "uint256",
                    "internalType": "uint256"
                }
            ],
            "stateMutability": "view"
        },
        {
            "type": "function",
            "name": "getUserHasCustomWeights",
            "inputs": [
                {
                    "name": "user",
                    "type": "address",
                    "internalType": "address"
                }
            ],
            "outputs": [
                {
                    "name": "",
                    "type": "bool",
                    "internalType": "bool"
                }
            ],
            "stateMutability": "view"
        },
        {
            "type": "function",
            "name": "getUserWeights",
            "inputs": [
                {
                    "name": "user",
                    "type": "address",
                    "internalType": "address"
                }
            ],
            "outputs": [
                {
                    "name": "",
                    "type": "uint256[]",
                    "internalType": "uint256[]"
                }
            ],
            "stateMutability": "view"
        },
        {
            "type": "function",
            "name": "hasUserWeights",
            "inputs": [
                {
                    "name": "",
                    "type": "address",
                    "internalType": "address"
                }
            ],
            "outputs": [
                {
                    "name": "",
                    "type": "bool",
                    "internalType": "bool"
                }
            ],
            "stateMutability": "view"
        },
        {
            "type": "function",
            "name": "lastRebalanceTime",
            "inputs": [],
            "outputs": [
                {
                    "name": "",
                    "type": "uint256",
                    "internalType": "uint256"
                }
            ],
            "stateMutability": "view"
        },
        {
            "type": "function",
            "name": "nftAddress",
            "inputs": [],
            "outputs": [
                {
                    "name": "",
                    "type": "address",
                    "internalType": "address"
                }
            ],
            "stateMutability": "view"
        },
        {
            "type": "function",
            "name": "protocolFeePercentage",
            "inputs": [],
            "outputs": [
                {
                    "name": "",
                    "type": "uint256",
                    "internalType": "uint256"
                }
            ],
            "stateMutability": "view"
        },
        {
            "type": "function",
            "name": "rebalanceFrequency",
            "inputs": [],
            "outputs": [
                {
                    "name": "",
                    "type": "uint256",
                    "internalType": "uint256"
                }
            ],
            "stateMutability": "view"
        },
        {
            "type": "function",
            "name": "rebalanceUserWeights",
            "inputs": [
                {
                    "name": "newWeights",
                    "type": "uint256[]",
                    "internalType": "uint256[]"
                }
            ],
            "outputs": [],
            "stateMutability": "nonpayable"
        },
        {
            "type": "function",
            "name": "recordDeposit",
            "inputs": [
                {
                    "name": "user",
                    "type": "address",
                    "internalType": "address"
                },
                {
                    "name": "stablecoinAmount",
                    "type": "uint256",
                    "internalType": "uint256"
                },
                {
                    "name": "bTokenMinted",
                    "type": "uint256",
                    "internalType": "uint256"
                }
            ],
            "outputs": [],
            "stateMutability": "nonpayable"
        },
        {
            "type": "function",
            "name": "recordWithdrawal",
            "inputs": [
                {
                    "name": "user",
                    "type": "address",
                    "internalType": "address"
                },
                {
                    "name": "bTokenAmount",
                    "type": "uint256",
                    "internalType": "uint256"
                },
                {
                    "name": "stablecoinReturned",
                    "type": "uint256",
                    "internalType": "uint256"
                }
            ],
            "outputs": [],
            "stateMutability": "nonpayable"
        },
        {
            "type": "function",
            "name": "setUserWeights",
            "inputs": [
                {
                    "name": "newWeights",
                    "type": "uint256[]",
                    "internalType": "uint256[]"
                }
            ],
            "outputs": [],
            "stateMutability": "nonpayable"
        },
        {
            "type": "function",
            "name": "totalValueLocked",
            "inputs": [],
            "outputs": [
                {
                    "name": "",
                    "type": "uint256",
                    "internalType": "uint256"
                }
            ],
            "stateMutability": "view"
        },
        {
            "type": "function",
            "name": "underlyingTokens",
            "inputs": [
                {
                    "name": "",
                    "type": "uint256",
                    "internalType": "uint256"
                }
            ],
            "outputs": [
                {
                    "name": "",
                    "type": "address",
                    "internalType": "address"
                }
            ],
            "stateMutability": "view"
        },
        {
            "type": "function",
            "name": "updateDefaultWeights",
            "inputs": [
                {
                    "name": "newWeights",
                    "type": "uint256[]",
                    "internalType": "uint256[]"
                }
            ],
            "outputs": [],
            "stateMutability": "nonpayable"
        },
        {
            "type": "function",
            "name": "userBTokenBalance",
            "inputs": [
                {
                    "name": "",
                    "type": "address",
                    "internalType": "address"
                }
            ],
            "outputs": [
                {
                    "name": "",
                    "type": "uint256",
                    "internalType": "uint256"
                }
            ],
            "stateMutability": "view"
        },
        {
            "type": "function",
            "name": "userDepositTimestamp",
            "inputs": [
                {
                    "name": "",
                    "type": "address",
                    "internalType": "address"
                }
            ],
            "outputs": [
                {
                    "name": "",
                    "type": "uint256",
                    "internalType": "uint256"
                }
            ],
            "stateMutability": "view"
        },
        {
            "type": "function",
            "name": "userWeights",
            "inputs": [
                {
                    "name": "",
                    "type": "address",
                    "internalType": "address"
                },
                {
                    "name": "",
                    "type": "uint256",
                    "internalType": "uint256"
                }
            ],
            "outputs": [
                {
                    "name": "",
                    "type": "uint256",
                    "internalType": "uint256"
                }
            ],
            "stateMutability": "view"
        },
        {
            "type": "event",
            "name": "BasketDefaultWeightsUpdated",
            "inputs": [
                {
                    "name": "newWeights",
                    "type": "uint256[]",
                    "indexed": false,
                    "internalType": "uint256[]"
                },
                {
                    "name": "timestamp",
                    "type": "uint256",
                    "indexed": false,
                    "internalType": "uint256"
                }
            ],
            "anonymous": false
        },
        {
            "type": "event",
            "name": "Deposit",
            "inputs": [
                {
                    "name": "user",
                    "type": "address",
                    "indexed": true,
                    "internalType": "address"
                },
                {
                    "name": "stablecoinAmount",
                    "type": "uint256",
                    "indexed": false,
                    "internalType": "uint256"
                },
                {
                    "name": "bTokenMinted",
                    "type": "uint256",
                    "indexed": false,
                    "internalType": "uint256"
                }
            ],
            "anonymous": false
        },
        {
            "type": "event",
            "name": "UserRebalanced",
            "inputs": [
                {
                    "name": "user",
                    "type": "address",
                    "indexed": true,
                    "internalType": "address"
                },
                {
                    "name": "newWeights",
                    "type": "uint256[]",
                    "indexed": false,
                    "internalType": "uint256[]"
                },
                {
                    "name": "timestamp",
                    "type": "uint256",
                    "indexed": false,
                    "internalType": "uint256"
                }
            ],
            "anonymous": false
        },
        {
            "type": "event",
            "name": "UserWeightsUpdated",
            "inputs": [
                {
                    "name": "user",
                    "type": "address",
                    "indexed": true,
                    "internalType": "address"
                },
                {
                    "name": "newWeights",
                    "type": "uint256[]",
                    "indexed": false,
                    "internalType": "uint256[]"
                },
                {
                    "name": "timestamp",
                    "type": "uint256",
                    "indexed": false,
                    "internalType": "uint256"
                }
            ],
            "anonymous": false
        },
        {
            "type": "event",
            "name": "Withdrawal",
            "inputs": [
                {
                    "name": "user",
                    "type": "address",
                    "indexed": true,
                    "internalType": "address"
                },
                {
                    "name": "bTokenBurned",
                    "type": "uint256",
                    "indexed": false,
                    "internalType": "uint256"
                },
                {
                    "name": "stablecoinReturned",
                    "type": "uint256",
                    "indexed": false,
                    "internalType": "uint256"
                }
            ],
            "anonymous": false
        }
    ],
    "bytecode": {
        "object": "0x608060405234801561000f575f5ffd5b50604051612b3c380380612b3c833981810160405281019061003191906105ed565b895f5f6101000a81548173ffffffffffffffffffffffffffffffffffffffff021916908373ffffffffffffffffffffffffffffffffffffffff1602179055508860015f6101000a81548173ffffffffffffffffffffffffffffffffffffffff021916908373ffffffffffffffffffffffffffffffffffffffff16021790555087600290816100bf919061093d565b5086600390816100cf919061093d565b508560045f6101000a81548173ffffffffffffffffffffffffffffffffffffffff021916908373ffffffffffffffffffffffffffffffffffffffff1602179055508460055f6101000a81548173ffffffffffffffffffffffffffffffffffffffff021916908373ffffffffffffffffffffffffffffffffffffffff16021790555083600690805190602001906101669291906101a2565b50826007908051906020019061017d929190610229565b5081600e8190555080600f8190555042600d8190555050505050505050505050610a0c565b828054828255905f5260205f20908101928215610218579160200282015b82811115610217578251825f6101000a81548173ffffffffffffffffffffffffffffffffffffffff021916908373ffffffffffffffffffffffffffffffffffffffff160217905550916020019190600101906101c0565b5b5090506102259190610274565b5090565b828054828255905f5260205f20908101928215610263579160200282015b82811115610262578251825591602001919060010190610247565b5b5090506102709190610274565b5090565b5b8082111561028b575f815f905550600101610275565b5090565b5f604051905090565b5f5ffd5b5f5ffd5b5f73ffffffffffffffffffffffffffffffffffffffff82169050919050565b5f6102c9826102a0565b9050919050565b6102d9816102bf565b81146102e3575f5ffd5b50565b5f815190506102f4816102d0565b92915050565b5f5ffd5b5f5ffd5b5f601f19601f8301169050919050565b7f4e487b71000000000000000000000000000000000000000000000000000000005f52604160045260245ffd5b61034882610302565b810181811067ffffffffffffffff8211171561036757610366610312565b5b80604052505050565b5f61037961028f565b9050610385828261033f565b919050565b5f67ffffffffffffffff8211156103a4576103a3610312565b5b6103ad82610302565b9050602081019050919050565b8281835e5f83830152505050565b5f6103da6103d58461038a565b610370565b9050828152602081018484840111156103f6576103f56102fe565b5b6104018482856103ba565b509392505050565b5f82601f83011261041d5761041c6102fa565b5b815161042d8482602086016103c8565b91505092915050565b5f67ffffffffffffffff8211156104505761044f610312565b5b602082029050602081019050919050565b5f5ffd5b5f61047761047284610436565b610370565b9050808382526020820190506020840283018581111561049a57610499610461565b5b835b818110156104c357806104af88826102e6565b84526020840193505060208101905061049c565b5050509392505050565b5f82601f8301126104e1576104e06102fa565b5b81516104f1848260208601610465565b91505092915050565b5f67ffffffffffffffff82111561051457610513610312565b5b602082029050602081019050919050565b5f819050919050565b61053781610525565b8114610541575f5ffd5b50565b5f815190506105528161052e565b92915050565b5f61056a610565846104fa565b610370565b9050808382526020820190506020840283018581111561058d5761058c610461565b5b835b818110156105b657806105a28882610544565b84526020840193505060208101905061058f565b5050509392505050565b5f82601f8301126105d4576105d36102fa565b5b81516105e4848260208601610558565b91505092915050565b5f5f5f5f5f5f5f5f5f5f6101408b8d03121561060c5761060b610298565b5b5f6106198d828e016102e6565b9a5050602061062a8d828e016102e6565b99505060408b015167ffffffffffffffff81111561064b5761064a61029c565b5b6106578d828e01610409565b98505060608b015167ffffffffffffffff8111156106785761067761029c565b5b6106848d828e01610409565b97505060806106958d828e016102e6565b96505060a06106a68d828e016102e6565b95505060c08b015167ffffffffffffffff8111156106c7576106c661029c565b5b6106d38d828e016104cd565b94505060e08b015167ffffffffffffffff8111156106f4576106f361029c565b5b6107008d828e016105c0565b9350506101006107128d828e01610544565b9250506101206107248d828e01610544565b9150509295989b9194979a5092959850565b5f81519050919050565b7f4e487b71000000000000000000000000000000000000000000000000000000005f52602260045260245ffd5b5f600282049050600182168061078457607f821691505b60208210810361079757610796610740565b5b50919050565b5f819050815f5260205f209050919050565b5f6020601f8301049050919050565b5f82821b905092915050565b5f600883026107f97fffffffffffffffffffffffffffffffffffffffffffffffffffffffffffffffff826107be565b61080386836107be565b95508019841693508086168417925050509392505050565b5f819050919050565b5f61083e61083961083484610525565b61081b565b610525565b9050919050565b5f819050919050565b61085783610824565b61086b61086382610845565b8484546107ca565b825550505050565b5f5f905090565b610882610873565b61088d81848461084e565b505050565b5b818110156108b0576108a55f8261087a565b600181019050610893565b5050565b601f8211156108f5576108c68161079d565b6108cf846107af565b810160208510156108de578190505b6108f26108ea856107af565b830182610892565b50505b505050565b5f82821c905092915050565b5f6109155f19846008026108fa565b1980831691505092915050565b5f61092d8383610906565b9150826002028217905092915050565b61094682610736565b67ffffffffffffffff81111561095f5761095e610312565b5b610969825461076d565b6109748282856108b4565b5f60209050601f8311600181146109a5575f8415610993578287015190505b61099d8582610922565b865550610a04565b601f1984166109b38661079d565b5f5b828110156109da578489015182556001820191506020850194506020810190506109b5565b868310156109f757848901516109f3601f891682610906565b8355505b6001600288020188555050505b505050505050565b61212380610a195f395ff3fe608060405234801561000f575f5ffd5b50600436106101c2575f3560e01c8063b26025aa116100f7578063e66f53b711610095578063f1589c861161006f578063f1589c8614610520578063f3918ecb14610550578063fdf0e9d01461056e578063feca43d31461058a576101c2565b8063e66f53b7146104b4578063e97adb85146104d2578063ec18154e14610502576101c2565b8063c68ba54c116100d1578063c68ba54c14610440578063d91ae1bc1461045c578063d95bd6c914610478578063d9ca21d514610496576101c2565b8063b26025aa146103e6578063b6922ef814610404578063c45a015514610422576101c2565b806378a89567116101645780638e50e5091161013e5780638e50e5091461034a5780639397193d14610368578063a3bf224b14610386578063a5df1fdb146103b6576101c2565b806378a89567146102cc5780637948616f146102ea57806386b986be1461031a576101c2565b80633f3ed0fb116101a05780633f3ed0fb1461021e578063515af3651461024e5780635bf8633a1461027e578063666606991461029c576101c2565b80630ddd2e65146101c65780632b7a7797146101e457806332afcb0b14610200575b5f5ffd5b6101ce6105a6565b6040516101db91906116b0565b60405180910390f35b6101fe60048036038101906101f9919061185d565b6105cb565b005b610208610820565b60405161021591906118b3565b60405180910390f35b610238600480360381019061023391906118f6565b610826565b60405161024591906119d8565b60405180910390f35b610268600480360381019061026391906118f6565b6108b9565b6040516102759190611a12565b60405180910390f35b6102866108d6565b60405161029391906116b0565b60405180910390f35b6102b660048036038101906102b191906118f6565b6108fb565b6040516102c39190611a12565b60405180910390f35b6102d461094d565b6040516102e191906118b3565b60405180910390f35b61030460048036038101906102ff91906118f6565b610959565b60405161031191906118b3565b60405180910390f35b610334600480360381019061032f91906118f6565b61096e565b60405161034191906118b3565b60405180910390f35b6103526109b4565b60405161035f91906118b3565b60405180910390f35b6103706109ba565b60405161037d91906119d8565b60405180910390f35b6103a0600480360381019061039b9190611a2b565b610a10565b6040516103ad91906116b0565b60405180910390f35b6103d060048036038101906103cb9190611a2b565b610a4b565b6040516103dd91906118b3565b60405180910390f35b6103ee610a6b565b6040516103fb91906118b3565b60405180910390f35b61040c610a74565b6040516104199190611ab6565b60405180910390f35b61042a610b00565b60405161043791906116b0565b60405180910390f35b61045a60048036038101906104559190611ad6565b610b24565b005b6104766004803603810190610471919061185d565b610d93565b005b610480610f4a565b60405161048d9190611bdd565b60405180910390f35b61049e610fd5565b6040516104ab91906118b3565b60405180910390f35b6104bc610fdb565b6040516104c991906116b0565b60405180910390f35b6104ec60048036038101906104e79190611bfd565b611000565b6040516104f991906118b3565b60405180910390f35b61050a61102b565b60405161051791906118b3565b60405180910390f35b61053a600480360381019061053591906118f6565b611031565b60405161054791906118b3565b60405180910390f35b610558611046565b6040516105659190611ab6565b60405180910390f35b6105886004803603810190610583919061185d565b6110d2565b005b6105a4600480360381019061059f9190611ad6565b6113ef565b005b60045f9054906101000a900473ffffffffffffffffffffffffffffffffffffffff1681565b600680549050815114610613576040517f08c379a000000000000000000000000000000000000000000000000000000000815260040161060a90611c85565b60405180910390fd5b5f60095f3373ffffffffffffffffffffffffffffffffffffffff1673ffffffffffffffffffffffffffffffffffffffff1681526020019081526020015f205411610692576040517f08c379a000000000000000000000000000000000000000000000000000000000815260040161068990611ced565b60405180910390fd5b5f5f90505f5f90505b82518110156106d9578281815181106106b7576106b6611d0b565b5b6020026020010151826106ca9190611d65565b9150808060010191505061069b565b50612710811461071e576040517f08c379a000000000000000000000000000000000000000000000000000000000815260040161071590611de2565b60405180910390fd5b8160085f3373ffffffffffffffffffffffffffffffffffffffff1673ffffffffffffffffffffffffffffffffffffffff1681526020019081526020015f20908051906020019061076f9291906115bd565b506001600b5f3373ffffffffffffffffffffffffffffffffffffffff1673ffffffffffffffffffffffffffffffffffffffff1681526020019081526020015f205f6101000a81548160ff02191690831515021790555042600d819055503373ffffffffffffffffffffffffffffffffffffffff167f7330d2363a1658291468d6b11892e8b83ec318f775f6986fdfe72446d54922df8342604051610814929190611e00565b60405180910390a25050565b600e5481565b606060085f8373ffffffffffffffffffffffffffffffffffffffff1673ffffffffffffffffffffffffffffffffffffffff1681526020019081526020015f208054806020026020016040519081016040528092919081815260200182805480156108ad57602002820191905f5260205f20905b815481526020019060010190808311610899575b50505050509050919050565b600b602052805f5260405f205f915054906101000a900460ff1681565b60055f9054906101000a900473ffffffffffffffffffffffffffffffffffffffff1681565b5f600b5f8373ffffffffffffffffffffffffffffffffffffffff1673ffffffffffffffffffffffffffffffffffffffff1681526020019081526020015f205f9054906101000a900460ff169050919050565b5f600680549050905090565b600a602052805f5260405f205f915090505481565b5f60095f8373ffffffffffffffffffffffffffffffffffffffff1673ffffffffffffffffffffffffffffffffffffffff1681526020019081526020015f20549050919050565b600f5481565b60606007805480602002602001604051908101604052809291908181526020018280548015610a0657602002820191905f5260205f20905b8154815260200190600101908083116109f2575b5050505050905090565b60068181548110610a1f575f80fd5b905f5260205f20015f915054906101000a900473ffffffffffffffffffffffffffffffffffffffff1681565b60078181548110610a5a575f80fd5b905f5260205f20015f915090505481565b5f600c54905090565b60038054610a8190611e5b565b80601f0160208091040260200160405190810160405280929190818152602001828054610aad90611e5b565b8015610af85780601f10610acf57610100808354040283529160200191610af8565b820191905f5260205f20905b815481529060010190602001808311610adb57829003601f168201915b505050505081565b5f5f9054906101000a900473ffffffffffffffffffffffffffffffffffffffff1681565b5f5f9054906101000a900473ffffffffffffffffffffffffffffffffffffffff1673ffffffffffffffffffffffffffffffffffffffff163373ffffffffffffffffffffffffffffffffffffffff1614610bb2576040517f08c379a0000000000000000000000000000000000000000000000000000000008152600401610ba990611ed5565b60405180910390fd5b5f8211610bf4576040517f08c379a0000000000000000000000000000000000000000000000000000000008152600401610beb90611f3d565b60405180910390fd5b8060095f8573ffffffffffffffffffffffffffffffffffffffff1673ffffffffffffffffffffffffffffffffffffffff1681526020019081526020015f205f828254610c409190611d65565b9250508190555042600a5f8573ffffffffffffffffffffffffffffffffffffffff1673ffffffffffffffffffffffffffffffffffffffff1681526020019081526020015f208190555081600c5f828254610c9a9190611d65565b92505081905550600b5f8473ffffffffffffffffffffffffffffffffffffffff1673ffffffffffffffffffffffffffffffffffffffff1681526020019081526020015f205f9054906101000a900460ff16610d3e57600760085f8573ffffffffffffffffffffffffffffffffffffffff1673ffffffffffffffffffffffffffffffffffffffff1681526020019081526020015f20908054610d3c929190611608565b505b8273ffffffffffffffffffffffffffffffffffffffff167f90890809c654f11d6e72a28fa60149770a0d11ec6c92319d6ceb2bb0a4ea1a158383604051610d86929190611f5b565b60405180910390a2505050565b60015f9054906101000a900473ffffffffffffffffffffffffffffffffffffffff1673ffffffffffffffffffffffffffffffffffffffff163373ffffffffffffffffffffffffffffffffffffffff1614610e22576040517f08c379a0000000000000000000000000000000000000000000000000000000008152600401610e1990611fcc565b60405180910390fd5b600680549050815114610e6a576040517f08c379a0000000000000000000000000000000000000000000000000000000008152600401610e6190611c85565b60405180910390fd5b5f5f90505f5f90505b8251811015610eb157828181518110610e8f57610e8e611d0b565b5b602002602001015182610ea29190611d65565b91508080600101915050610e73565b506127108114610ef6576040517f08c379a0000000000000000000000000000000000000000000000000000000008152600401610eed90611de2565b60405180910390fd5b8160079080519060200190610f0c9291906115bd565b507f33676ccceb775c2b420d6f0bf5394bfdc5edc9f480dc27246861f134fa35c5448242604051610f3e929190611e00565b60405180910390a15050565b60606006805480602002602001604051908101604052809291908181526020018280548015610fcb57602002820191905f5260205f20905b815f9054906101000a900473ffffffffffffffffffffffffffffffffffffffff1673ffffffffffffffffffffffffffffffffffffffff1681526020019060010190808311610f82575b5050505050905090565b600d5481565b60015f9054906101000a900473ffffffffffffffffffffffffffffffffffffffff1681565b6008602052815f5260405f208181548110611019575f80fd5b905f5260205f20015f91509150505481565b600c5481565b6009602052805f5260405f205f915090505481565b6002805461105390611e5b565b80601f016020809104026020016040519081016040528092919081815260200182805461107f90611e5b565b80156110ca5780601f106110a1576101008083540402835291602001916110ca565b820191905f5260205f20905b8154815290600101906020018083116110ad57829003601f168201915b505050505081565b60068054905081511461111a576040517f08c379a000000000000000000000000000000000000000000000000000000000815260040161111190611c85565b60405180910390fd5b5f60095f3373ffffffffffffffffffffffffffffffffffffffff1673ffffffffffffffffffffffffffffffffffffffff1681526020019081526020015f205411611199576040517f08c379a000000000000000000000000000000000000000000000000000000000815260040161119090611ced565b60405180910390fd5b600e54600a5f3373ffffffffffffffffffffffffffffffffffffffff1673ffffffffffffffffffffffffffffffffffffffff1681526020019081526020015f20546111e49190611d65565b421015611226576040517f08c379a000000000000000000000000000000000000000000000000000000000815260040161121d90612034565b60405180910390fd5b5f5f90505f5f90505b825181101561126d5782818151811061124b5761124a611d0b565b5b60200260200101518261125e9190611d65565b9150808060010191505061122f565b5061271081146112b2576040517f08c379a00000000000000000000000000000000000000000000000000000000081526004016112a990611de2565b60405180910390fd5b8160085f3373ffffffffffffffffffffffffffffffffffffffff1673ffffffffffffffffffffffffffffffffffffffff1681526020019081526020015f2090805190602001906113039291906115bd565b506001600b5f3373ffffffffffffffffffffffffffffffffffffffff1673ffffffffffffffffffffffffffffffffffffffff1681526020019081526020015f205f6101000a81548160ff02191690831515021790555042600a5f3373ffffffffffffffffffffffffffffffffffffffff1673ffffffffffffffffffffffffffffffffffffffff1681526020019081526020015f20819055503373ffffffffffffffffffffffffffffffffffffffff167facacc2c56c31db97c124565a125b41f294e50e78a004f9e1a118d7e1825ee5ba83426040516113e3929190611e00565b60405180910390a25050565b5f5f9054906101000a900473ffffffffffffffffffffffffffffffffffffffff1673ffffffffffffffffffffffffffffffffffffffff163373ffffffffffffffffffffffffffffffffffffffff161461147d576040517f08c379a000000000000000000000000000000000000000000000000000000000815260040161147490611ed5565b60405180910390fd5b8160095f8573ffffffffffffffffffffffffffffffffffffffff1673ffffffffffffffffffffffffffffffffffffffff1681526020019081526020015f205410156114fd576040517f08c379a00000000000000000000000000000000000000000000000000000000081526004016114f49061209c565b60405180910390fd5b8160095f8573ffffffffffffffffffffffffffffffffffffffff1673ffffffffffffffffffffffffffffffffffffffff1681526020019081526020015f205f82825461154991906120ba565b9250508190555080600c5f82825461156191906120ba565b925050819055508273ffffffffffffffffffffffffffffffffffffffff167fdf273cb619d95419a9cd0ec88123a0538c85064229baa6363788f743fff90deb83836040516115b0929190611f5b565b60405180910390a2505050565b828054828255905f5260205f209081019282156115f7579160200282015b828111156115f65782518255916020019190600101906115db565b5b5090506116049190611656565b5090565b828054828255905f5260205f20908101928215611645575f5260205f209182015b82811115611644578254825591600101919060010190611629565b5b5090506116529190611656565b5090565b5b8082111561166d575f815f905550600101611657565b5090565b5f73ffffffffffffffffffffffffffffffffffffffff82169050919050565b5f61169a82611671565b9050919050565b6116aa81611690565b82525050565b5f6020820190506116c35f8301846116a1565b92915050565b5f604051905090565b5f5ffd5b5f5ffd5b5f5ffd5b5f601f19601f8301169050919050565b7f4e487b71000000000000000000000000000000000000000000000000000000005f52604160045260245ffd5b611724826116de565b810181811067ffffffffffffffff82111715611743576117426116ee565b5b80604052505050565b5f6117556116c9565b9050611761828261171b565b919050565b5f67ffffffffffffffff8211156117805761177f6116ee565b5b602082029050602081019050919050565b5f5ffd5b5f819050919050565b6117a781611795565b81146117b1575f5ffd5b50565b5f813590506117c28161179e565b92915050565b5f6117da6117d584611766565b61174c565b905080838252602082019050602084028301858111156117fd576117fc611791565b5b835b81811015611826578061181288826117b4565b8452602084019350506020810190506117ff565b5050509392505050565b5f82601f830112611844576118436116da565b5b81356118548482602086016117c8565b91505092915050565b5f60208284031215611872576118716116d2565b5b5f82013567ffffffffffffffff81111561188f5761188e6116d6565b5b61189b84828501611830565b91505092915050565b6118ad81611795565b82525050565b5f6020820190506118c65f8301846118a4565b92915050565b6118d581611690565b81146118df575f5ffd5b50565b5f813590506118f0816118cc565b92915050565b5f6020828403121561190b5761190a6116d2565b5b5f611918848285016118e2565b91505092915050565b5f81519050919050565b5f82825260208201905092915050565b5f819050602082019050919050565b61195381611795565b82525050565b5f611964838361194a565b60208301905092915050565b5f602082019050919050565b5f61198682611921565b611990818561192b565b935061199b8361193b565b805f5b838110156119cb5781516119b28882611959565b97506119bd83611970565b92505060018101905061199e565b5085935050505092915050565b5f6020820190508181035f8301526119f0818461197c565b905092915050565b5f8115159050919050565b611a0c816119f8565b82525050565b5f602082019050611a255f830184611a03565b92915050565b5f60208284031215611a4057611a3f6116d2565b5b5f611a4d848285016117b4565b91505092915050565b5f81519050919050565b5f82825260208201905092915050565b8281835e5f83830152505050565b5f611a8882611a56565b611a928185611a60565b9350611aa2818560208601611a70565b611aab816116de565b840191505092915050565b5f6020820190508181035f830152611ace8184611a7e565b905092915050565b5f5f5f60608486031215611aed57611aec6116d2565b5b5f611afa868287016118e2565b9350506020611b0b868287016117b4565b9250506040611b1c868287016117b4565b9150509250925092565b5f81519050919050565b5f82825260208201905092915050565b5f819050602082019050919050565b611b5881611690565b82525050565b5f611b698383611b4f565b60208301905092915050565b5f602082019050919050565b5f611b8b82611b26565b611b958185611b30565b9350611ba083611b40565b805f5b83811015611bd0578151611bb78882611b5e565b9750611bc283611b75565b925050600181019050611ba3565b5085935050505092915050565b5f6020820190508181035f830152611bf58184611b81565b905092915050565b5f5f60408385031215611c1357611c126116d2565b5b5f611c20858286016118e2565b9250506020611c31858286016117b4565b9150509250929050565b7f57656967687420636f756e74206d69736d6174636800000000000000000000005f82015250565b5f611c6f601583611a60565b9150611c7a82611c3b565b602082019050919050565b5f6020820190508181035f830152611c9c81611c63565b9050919050565b7f4e6f207374616b6520696e206261736b657400000000000000000000000000005f82015250565b5f611cd7601283611a60565b9150611ce282611ca3565b602082019050919050565b5f6020820190508181035f830152611d0481611ccb565b9050919050565b7f4e487b71000000000000000000000000000000000000000000000000000000005f52603260045260245ffd5b7f4e487b71000000000000000000000000000000000000000000000000000000005f52601160045260245ffd5b5f611d6f82611795565b9150611d7a83611795565b9250828201905080821115611d9257611d91611d38565b5b92915050565b7f57656967687473206d7573742073756d20746f203130303030000000000000005f82015250565b5f611dcc601983611a60565b9150611dd782611d98565b602082019050919050565b5f6020820190508181035f830152611df981611dc0565b9050919050565b5f6040820190508181035f830152611e18818561197c565b9050611e2760208301846118a4565b9392505050565b7f4e487b71000000000000000000000000000000000000000000000000000000005f52602260045260245ffd5b5f6002820490506001821680611e7257607f821691505b602082108103611e8557611e84611e2e565b5b50919050565b7f4f6e6c7920666163746f727900000000000000000000000000000000000000005f82015250565b5f611ebf600c83611a60565b9150611eca82611e8b565b602082019050919050565b5f6020820190508181035f830152611eec81611eb3565b9050919050565b7f416d6f756e74203e2030000000000000000000000000000000000000000000005f82015250565b5f611f27600a83611a60565b9150611f3282611ef3565b602082019050919050565b5f6020820190508181035f830152611f5481611f1b565b9050919050565b5f604082019050611f6e5f8301856118a4565b611f7b60208301846118a4565b9392505050565b7f4f6e6c792063757261746f7200000000000000000000000000000000000000005f82015250565b5f611fb6600c83611a60565b9150611fc182611f82565b602082019050919050565b5f6020820190508181035f830152611fe381611faa565b9050919050565b7f526562616c616e636520746f6f20736f6f6e00000000000000000000000000005f82015250565b5f61201e601283611a60565b915061202982611fea565b602082019050919050565b5f6020820190508181035f83015261204b81612012565b9050919050565b7f496e73756666696369656e742062616c616e63650000000000000000000000005f82015250565b5f612086601483611a60565b915061209182612052565b602082019050919050565b5f6020820190508181035f8301526120b38161207a565b9050919050565b5f6120c482611795565b91506120cf83611795565b92508282039050818111156120e7576120e6611d38565b5b9291505056fea26469706673582212202f08c9cd3971421548fdaacee7369aebb56186a2f64c581587338299c515f58964736f6c634300081c0033",
        "linkReferences": {}
    },
    "methodIdentifiers": {
        "bTokenAddress()": "0ddd2e65",
        "basketName()": "f3918ecb",
        "basketTheme()": "b6922ef8",
        "curator()": "e66f53b7",
        "defaultWeights(uint256)": "a5df1fdb",
        "factory()": "c45a0155",
        "getDefaultWeights()": "9397193d",
        "getTokenCount()": "78a89567",
        "getTotalValueLocked()": "b26025aa",
        "getUnderlyingTokens()": "d95bd6c9",
        "getUserBTokenBalance(address)": "86b986be",
        "getUserHasCustomWeights(address)": "66660699",
        "getUserWeights(address)": "3f3ed0fb",
        "hasUserWeights(address)": "515af365",
        "lastRebalanceTime()": "d9ca21d5",
        "nftAddress()": "5bf8633a",
        "protocolFeePercentage()": "8e50e509",
        "rebalanceFrequency()": "32afcb0b",
        "rebalanceUserWeights(uint256[])": "fdf0e9d0",
        "recordDeposit(address,uint256,uint256)": "c68ba54c",
        "recordWithdrawal(address,uint256,uint256)": "feca43d3",
        "setUserWeights(uint256[])": "2b7a7797",
        "totalValueLocked()": "ec18154e",
        "underlyingTokens(uint256)": "a3bf224b",
        "updateDefaultWeights(uint256[])": "d91ae1bc",
        "userBTokenBalance(address)": "f1589c86",
        "userDepositTimestamp(address)": "7948616f",
        "userWeights(address,uint256)": "e97adb85"
    },
    "id": 0
}